:020000040800F2
:1000000078080020CD04000825050008D70800085E
:10001000250500082505000825050008000000004A
:10002000000000000000000000000000250500089E
:10003000250500080000000025050008250500082A
:1000400025050008250500082505000825050008E8
:1000500025050008250500082505000825050008D8
:1000600025050008250500082505000825050008C8
:1000700025050008250500082505000825050008B8
:1000800025050008250500082505000825050008A8
:100090002505000825050008250500082505000898
:1000A0002505000825050008250500082505000888
:1000B0002505000825050008250500082505000878
:1000C0002505000825050008250500082505000868
:1000D0002505000825050008250500082505000858
:1000E0002505000825050008250500082505000848
:1000F0002505000825050008250500082505000838
:100100002505000825050008250500082505000827
:100110002505000825050008250500082505000817
:100120002505000825050008250500082505000807
:1001300025050008250500082505000825050008F7
:1001400025050008250500082505000825050008E7
:10015000250500082505000825050008D50C000820
:1001600025050008250500082505000825050008C7
:1001700025050008250500082505000825050008B7
:10018000250500082505000880B58AB000AF786015
:10019000396000237B6200233B620023FB61002364
:1001A000BB617B681B8A9BB27B627B6A23F44053F2
:1001B0007B623B68DB881A467B6A13437B627B6AFF
:1001C0009AB27B681A827B689B899BB27B627B6A4E
:1001D00023F4B05323F00C037B623B689A883B689E
:1001E0001B8913439AB23B685B8913439BB21A463F
:1001F0007B6A13437B627B6A9AB27B689A817B68D5
:100200009B8A9BB27B627B6A23F440737B623B6870
:100210009B891A467B6A13437B627B6A9AB27B682E
:100220009A8207F10803184600F090F97B68314A7A
:10023000934203D07B68304A934202D17B693B6290
:1002400001E03B693B627B689B899BB29BB21BB21E
:10025000002B0CDA3A6A13469B0013449A001A44A6
:100260003B681B685B00B2FBF3F3FB610BE03A6A8F
:1002700013469B0013449A001A443B681B689B007A
:10028000B2FBF3F3FB61FB691C4AA2FB03235B098E
:100290001B017B627B6A1B09642202FB03F3FA6980
:1002A000D31ABB617B689B899BB29BB21BB2002BAC
:1002B0000CDABB69DB003233104AA2FB03235B0973
:1002C00003F007037A6A13437B620BE0BB691B01EF
:1002D00032330A4AA2FB03235B0903F00F037A6A55
:1002E00013437B627B6A9AB27B681A812837BD46CA
:1002F00080BD00BF00100140001401401F85EB517C
:1003000080B483B000AF78600B46FB70FB78002BA5
:1003100008D07B689B899BB243F400539AB27B68F8
:100320009A8107E07B689B899BB223F400539AB2C1
:100330007B689A810C37BD465DF8047B704700BF2F
:1003400080B483B000AF78600B467B807B88C3F3BA
:1003500008039AB27B689A800C37BD465DF8047B2F
:10036000704700BF80B483B000AF78607B689B8823
:100370009BB2C3F308039BB218460C37BD465DF829
:10038000047B704780B487B000AF78600B467B80F9
:1003900013467B7000233B610023FB600023BB609E
:1003A00000237B617B687B617B88DBB25B09DBB20E
:1003B0003B617B8803F01F03FB60FB68012202FAAC
:1003C00003F3BB603B69012B03D17B690C337B6179
:1003D00009E03B69022B03D17B6910337B6102E0AA
:1003E0007B6914337B617B78002B06D07B697A694B
:1003F0001168BA680A431A6006E07B697A69116875
:10040000BA68D2430A401A601C37BD465DF8047BC7
:10041000704700BF80B487B000AF78600B467B8028
:100420000023FB6000237B610023BB600023FB747F
:100430007B88DBB25B09DBB2BB607B8803F01F0308
:100440007B617B69012202FA03F37B61BB68012BAC
:1004500007D17B689B899BB21A467B6913407B61FD
:1004600011E0BB68022B07D17B681B8A9BB21A463E
:100470007B6913407B6106E07B689B8A9BB21A46CE
:100480007B6913407B617B881B0A9BB2FB60FB6826
:10049000012202FA03F3FB607B681B889BB21A46B9
:1004A000FB681340FB607B69002B05D0FB68002BC9
:1004B00002D00123FB7401E00023FB74FB7C18468F
:1004C0001C37BD465DF8047B704700BF80B582B025
:1004D00000AF0F4B7B600F4B3B6007E03B681A1D82
:1004E0003A607A68111D796012681A603B680A4A9E
:1004F0009342F3D309480A494FF000028842B8BF3B
:1005000040F8042BFADB00F011F80837BD4680BD37
:10051000E510000800000020240000202400002036
:100520007800002080B400AFFEE700BF80B500AFC8
:1005300000F0DCF900F006FA4FF4E13000F068FB5F
:10054000014800F035FCFEE7E00F000880B489B0F8
:1005500000AF78600023BB6100237B610023FB6157
:1005600002233B610023FB600223BB60484B9B6876
:1005700003F00C03BB61BB69042B07D0082B09D027
:10058000002B3FD17B68434A1A603FE07B68424AB8
:100590001A603BE03E4B5B6803F480039B0DFB60FD
:1005A0003B4B5B6803F03F03BB60FB68002B0DD047
:1005B000394ABB68B2FBF3F2354B596847F6C07352
:1005C0000B409B0903FB02F3FB610CE0314ABB6863
:1005D000B2FBF3F22E4B596847F6C0730B409B09F0
:1005E00003FB02F3FB612A4B5B6803F440331B0CF3
:1005F00001335B003B61FA693B69B2FBF3F27B6854
:100600001A6003E07B68234A1A6000BF204B9B6896
:1006100003F0F003BB61BB691B09BB611F4ABB69E7
:1006200013441B78DBB27B617B681A687B69DA4014
:100630007B685A60164B9B6803F4E053BB61BB694F
:100640009B0ABB61154ABB6913441B78DBB27B6113
:100650007B685A687B69DA407B689A600C4B9B68C0
:1006600003F46043BB61BB695B0BBB610B4ABB69B5
:1006700013441B78DBB27B617B685A687B69DA4084
:100680007B68DA602437BD465DF8047B704700BFA5
:10069000003802400024F40000127A00000000201C
:1006A00080B483B000AF78600B46FB70FB78002B02
:1006B00006D00949084B1A6B7B6813430B6306E0AD
:1006C0000549054B1A6B7B68DB4313400B630C3702
:1006D000BD465DF8047B70470038024080B483B0AB
:1006E00000AF78600B46FB70FB78002B06D0094901
:1006F000084B5A6C7B6813434B6406E00549054B75
:100700005A6C7B68DB4313404B640C37BD465DF885
:10071000047B70470038024080B487B000AF786037
:10072000396000237B6100233B610023FB600023D1
:100730007B6176E07B69012202FA03F33B613B684F
:100740001A683B691340FB60FA683B699A4265D1BD
:100750007B681A687B695B00194603238B40DB4387
:100760001A407B681A607B681A683B681B791946D7
:100770007B695B0001FA03F31A437B681A603B68EC
:100780001B79012B03D03B681B79022B2ED17B6890
:100790009A687B695B00194603238B40DB431A4050
:1007A0007B689A607B689A683B685B7919467B69CD
:1007B0005B0001FA03F31A437B689A607B685A680E
:1007C0007B699BB2194601238B40DB431A407B684F
:1007D0005A607B685B683A68927911467A6992B28E
:1007E00001FA02F292B21A437B685A607B68DA68B7
:1007F0007B699BB25B00032101FA03F3DB431A40E0
:100800007B68DA607B68DA683B68DB7919467B696C
:100810005B0001FA03F31A437B68DA607B690133FA
:100820007B617B690F2B85D91C37BD465DF8047B46
:10083000704700BF80B485B000AF78600B467B8006
:1008400013467B700023FB600023BB607B787A88B3
:1008500002F0070292009340FB607B88DB089BB2AA
:1008600018467B88DB089BB21A467B68083253F82F
:1008700022207B8803F007039B0019460F238B403F
:10088000DB4302EA03017B6800F1080243F822100F
:100890007B88DB089BB21A467B68083253F822201B
:1008A000FB681343BB607B88DB089BB21A467B68FE
:1008B0000832B96843F822101437BD465DF8047B4E
:1008C000704700BFABBE01E000207047002A00D097
:1008D00010600120704706980188034A914202D1B6
:1008E000043006907047FEE7ABBE000080B500AF55
:1008F000114A114B1B6843F0010313600E4B002299
:100900009A600D4A0C4B1B6823F0847323F48033E8
:100910001360094B094A5A60074A074B1B6823F4C6
:1009200080231360044B0022DA6000F087F8044B48
:100930004FF000629A6080BD003802401030002401
:1009400000ED00E080B487B000AF00233B610023DE
:100950007B610223FB600023BB6002237B60324B80
:100960009B6803F00C033B613B69042B07D0082B09
:1009700009D0002B3FD12D4B2D4A1A603FE02B4B65
:100980002C4A1A603BE0284B5B6803F480039B0D04
:10099000BB60254B5B6803F03F037B60BB68002BAB
:1009A0000DD0244A7B68B2FBF3F21F4B596847F61F
:1009B000C0730B409B0903FB02F37B610CE01C4AF4
:1009C0007B68B2FBF3F2184B596847F6C0730B40D3
:1009D0009B0903FB02F37B61134B5B6803F4403319
:1009E0001B0C01335B00FB607A69FB68B2FBF3F31D
:1009F0000E4A136003E00D4B0D4A1A6000BF0A4B0C
:100A00009B6803F0F0031B090B4AD35CDBB23B612C
:100A1000064B1A683B6922FA03F3044A13601C3739
:100A2000BD465DF8047B704700380240100000208E
:100A30000024F40000127A001400002080B483B077
:100A400000AF00237B6000233B60354A344B1B68BA
:100A500043F480331360324B1B6803F400333B6074
:100A60007B6801337B603B68002B03D17B68B3F567
:100A7000A06FF0D12A4B1B6803F40033002B02D087
:100A800001233B6001E000233B603B68012B42D126
:100A9000234A234B1B6C43F080531364214A214BA0
:100AA0001B6843F4804313601D4A1D4B9B68936091
:100AB0001B4A1B4B9B6843F400439360184A184B36
:100AC0009B6843F4A0539360154B174A5A60144A2D
:100AD000134B1B6843F08073136000BF104B1B68FF
:100AE00003F00073002BF9D0104B40F205621A603E
:100AF0000B4A0B4B9B6823F003039360084A084B97
:100B00009B6843F00203936000BF054B9B6803F0B2
:100B10000C03082BF9D10C37BD465DF8047B7047F8
:100B2000003802400070004008484006003C024087
:100B300080B485B000AF78600023FB730023BB73E3
:100B40000F237B737B68DB78002B38D0264BDB6868
:100B5000DB4303F4E0631B0AFB73FB7BC3F1040379
:100B6000BB737A7BFB7B42FA03F37B737B685B7816
:100B70001A46BB7B02FA03F3FB737B689A787B7B94
:100B80001340DAB2FB7B1343FB73FB7B1B01FB734C
:100B9000164A7B681B781344FA7B83F80023134AB8
:100BA0007B681B785B09DBB218467B681B7803F017
:100BB0001F03012101FA03F342F820300FE00B4933
:100BC0007B681B785B09DBB218467B681B7803F0F7
:100BD0001F0301229A4000F1200341F8232014371B
:100BE000BD465DF8047B704700ED00E000E100E0E9
:100BF00080B483B000AF786002E07B68013B7B602B
:100C00007B68002BF9D10C37BD465DF8047B70473B
:100C100080B58AB000AF786004200121FFF740FD65
:100C200020200121FFF75AFDC0233B6102233B75C1
:100C300002237B750023BB750123FB7507F11003AD
:100C400020481946FFF768FD1E4806210822FFF7D5
:100C5000F1FD1C4807210822FFF7ECFD7B68BB6112
:100C60000023BB830023FB8300233B840023BB843E
:100C70000C237B8407F1180313481946FFF784FA05
:100C8000114840F225510122FFF77CFB47233B73BB
:100C900000237B730023BB730123FB7307F10C0359
:100CA0001846FFF745FF08480121FFF729FB0748D1
:100CB00000F07EF800F098F80548FFF799FF283714
:100CC000BD4680BD0008024000140140F00F00083E
:100CD000002D310198B500AF244840F22551FFF7AF
:100CE00099FB0346002B40D0214B1B781C461F4824
:100CF000FFF738FB0346DAB21E4B1A551C4B1B7824
:100D00001A461C4B9B5C0D2B02D10A2000F038F8D0
:100D1000174B1B781A46174B9B5C9BB2184600F08A
:100D20002FF8134B1B78272B06D0114B1B781A4634
:100D3000104B9B5C0A2B12D10D4B1B780E480D49B2
:100D40001A4600F065F80B480021282200F0FAF856
:100D5000074B00221A70094B01221A7005E0044B60
:100D60001B780133DAB2024B1A7098BD00140140AF
:100D70002400002028000020500000202500002032
:100D800080B582B000AF0346FB80FB880748194658
:100D9000FFF7D6FA00BF054B1B889BB203F0400358
:100DA000002BF8D00837BD4680BD00BF00140140BD
:100DB00080B584B000AF78600023FB600AE0FB6878
:100DC0007A6813441B789BB21846FFF7D9FFFB687B
:100DD0000133FB60FB687A6813441B78002BEED16B
:100DE0001037BD4680BD00BF80B500AF054800216B
:100DF000282200F0A7F8044B00221A70034B0022AF
:100E00001A7080BD2800002024000020250000204A
:100E1000844641EA000313F003036DD1403A41D305
:100E200051F8043B40F8043B51F8043B40F8043BC4
:100E300051F8043B40F8043B51F8043B40F8043BB4
:100E400051F8043B40F8043B51F8043B40F8043BA4
:100E500051F8043B40F8043B51F8043B40F8043B94
:100E600051F8043B40F8043B51F8043B40F8043B84
:100E700051F8043B40F8043B51F8043B40F8043B74
:100E800051F8043B40F8043B51F8043B40F8043B64
:100E900051F8043B40F8043B51F8043B40F8043B54
:100EA000403ABDD2303211D351F8043B40F8043BF4
:100EB00051F8043B40F8043B51F8043B40F8043B34
:100EC00051F8043B40F8043B103AEDD20C3205D304
:100ED00051F8043B40F8043B043AF9D2043208D0FC
:100EE000D2071CBF11F8013B00F8013B01D30B886E
:100EF00003806046704700BF082A13D38B078DD04C
:100F000010F003038AD0C3F10403D21ADB071CBF1D
:100F100011F8013B00F8013B80D331F8023B20F887
:100F2000023B7BE7043AD9D3013A11F8013B00F8C0
:100F3000013BF9D20B7803704B7843708B78837048
:100F40006046704770B4840746D0541E002A41D0D2
:100F5000CDB2034602E0621EE4B3144603F8015B1F
:100F60009A07F8D1032C2ED9CDB245EA05250F2CCE
:100F700045EA054519D903F110022646103E0F2E09
:100F800042F8105C42F80C5C42F8085C42F8045CE1
:100F900002F11002F2D8A4F1100222F00F0204F0C4
:100FA0000F041032032C13440DD91E462246043A76
:100FB000032A46F8045BFAD8221F22F00302043207
:100FC000134404F003042CB1C9B21C4403F8011B00
:100FD000A342FBD170BC704714460346C2E700BF72
:100FE00048656C6C6F20576F726C642100000000C4
:100FF0000A0D0000415400004F4B00004F4B3132AE
:101000003030000041542B42415544310000000073
:101010004F4B32343030000041542B424155443262
:10102000000000004F4B34383030000041542B4258
:1010300041554433000000004F4B3936303000003A
:1010400041542B4241554434000000004F4B31398C
:101050003230300041542B424155443500000000ED
:101060004F4B33383430300041542B4241554436D5
:10107000000000004F4B35373630300041542B42D2
:1010800041554437000000004F4B3131353230308C
:101090000000000041542B4241554438000000003C
:1010A0004F4B3233303430300000000041542B427B
:1010B000415544390000000041542B4E414D452517
:1010C000730000004F4B7365746E616D6500000026
:1010D00041542B50494E2573000000004F4B73655F
:0510E0007450494E00B0
:1010E50000000000010203040102030406070809C9
:1010F500007A030A0000000000000000010203045A
:0411050006070809C8
:0400000508000000EF
:00000001FF
